:020000040000FA
:1000000050030010A1010000A9010000AB01000095
:10001000AD010000AF010000B101000000000000D0
:10002000000000000000000000000000B30100001C
:10003000B501000000000000B7010000B901000098
:10004000BB010000BB010000BB010000BB010000C0
:10005000BB010000BB010000BB010000BB010000B0
:10006000BB010000BB010000BB010000BB010000A0
:10007000BB010000BB010000BB010000BB01000090
:10008000BB010000BB010000BB010000BB01000080
:10009000BB010000BB010000BB010000BB01000070
:1000A000BB010000BB010000BB010000BB01000060
:1000B000BB010000BB010000BB010000BB01000050
:1000C000BB010000BB010000BB01000000F002F812
:1000D00000F03CF80AA090E8000C82448344AAF1A6
:1000E0000107DA4501D100F031F8AFF2090EBAE8A4
:1000F0000F0013F0010F18BFFB1A43F0010318475C
:100100005408000074080000103A24BF78C878C171
:10011000FAD8520724BF30C830C144BF04680C600D
:10012000704700000023002400250026103A28BF55
:1001300078C1FBD8520728BF30C148BF0B60704759
:100140001FB500F0D8FB1FBD10B510BD00F0DCFBE3
:100150001146FFF7F5FF00F05BFB00F0B9F803B4C0
:10016000FFF7F2FF03BC00F0BDF800000B49D1F827
:1001700000C04A685CF8043B1068184442F8040B5D
:100180008C4528BFA1F1DC0C8A4228BFA1F1DC021A
:10019000C1F800C04A6020F000407047E80000103D
:1001A0000948804709480047FEE7FEE7FEE7FEE70B
:1001B000FEE7FEE7FEE7FEE7FEE7FEE70448054947
:1001C000034A054B70470000A9040000CD00000061
:1001D00050010010500300105001001053EA020CAF
:1001E00000F069802DE9F04B4FF00006002B1FBF97
:1001F000B3FA83F503FA05F424FA05F65E4012BF5C
:100200001643B2FA82F502FA05F4C5F120051EBFC5
:1002100022FA05FC44EA0C04203556EA044C4FEA65
:10022000144418BF641C4FF000084FF000099042BE
:1002300071EB030C39D3002919BFB1FA81F701FA28
:1002400007F6B0FA80F700FA07F6C7F120071EBFDD
:1002500020FA07FC46EA0C062037B6FBF4FCA7EBB5
:100260000507103F07F01F0BCBF120060CFA0BFB24
:100270002CFA06F644BFB3460026202FA4BF5E46E4
:100280004FF0000B5BEA060C08BF4FF0010B19EBB7
:100290000B09ABFB027C48EB0608C01B06FB02CC3B
:1002A0000BFB03CC71EB0C01C1E70B460246414648
:1002B0004846BDE8F08B13B54FF000004FF0000149
:1002C000AFF30080BDE81C4070477047704770472F
:1002D0000446AFF300802046FFF741FF0048704717
:1002E000F000001001491820ABBEFEE72600020016
:1002F000704700000000000000000000FFFFFFFF4B
:100300002DE9F047B1480068C0F3016003287CD1B3
:10031000AF48006810F0030006D0012833D002284F
:100320005FD003282ED100E000BFA8480068C0F3CA
:10033000074000F101044FF00201A648D0F8880000
:10034000C0F30E0000F10100A1FB0001A24B4FF031
:10035000000CA0FB037901FB039100FB0C1122466A
:1003600063463846FFF73AFF05469C480068C0B22E
:1003700000F1010422464FF000032846FFF72EFF4C
:10038000974908605DE091480068C0F3074000F1BC
:1003900001044FF002018F48D0F88800C0F30E002E
:1003A00000F10100A1FB00108E4A4FF0000CA1FBF0
:1003B000027900FB029001FB0C012246634638469D
:1003C000FFF70CFF054685480068C0B200F1010444
:1003D00022464FF000032846FFF700FF80490860DF
:1003E0002FE07A480068C0F3074000F101044FF0A5
:1003F00002017848D0F88800C0F30E0000F1010037
:10040000A1FB00124FF4004000E01BE04FF000039E
:10041000A1FB007902FB009001FB03012246384654
:10042000FFF7DCFE05466D480068C0B200F101042C
:1004300022464FF000032846FFF7D0FE68490860C7
:1004400000BF2FE06248006810F0030006D00128CA
:1004500010D0022819D0032823D100E000BF5F4844
:100460000068C0B200F101005B49B1FBF0F05C49EB
:10047000086016E059480068C0B200F1010059490F
:10048000B1FBF0F0564908600BE054480068C0B278
:1004900000F101004FF40041B1FBF0F05049086059
:1004A00000BF00BFBDE8F08720204F4908604948E1
:1004B000D0F8A00110F0200F05D000BF4A48006816
:1004C00010F0400FFAD00320444908604FF00000BC
:1004D0004049C1F8A801454908604FF001003C4976
:1004E00008604348434908604FF0AA004249086049
:1004F0004FF0550008604FF00100404908604FF090
:10050000AA003D4908604FF055003249C1F88C00FF
:1005100000BF2E48006810F0806FFAD003203749E2
:1005200008604FF0AA002B49C1F88C004FF055002D
:100530003149086000BF2548006800F04070B0F104
:10054000407FF8D123202E4908604FF0AA002149AE
:10055000C1F8AC004FF055002A4908604FF0010087
:10056000294908604FF0AA00264908604FF055005D
:100570001849C1F8AC0000BF2448006810F4806F2F
:10058000FAD00320204908604FF0AA001149C1F8B1
:10059000AC004FF055001B49086000BF1B480068C5
:1005A00000F44070B0F5407FF8D11948194908604F
:1005B0004FF000000749C1F8C8010846006820F460
:1005C000704040F4804008607047000088C00F40D1
:1005D0000CC10F4000C00F4000093D0004C10F4096
:1005E00000000010001BB700A0C10F40ACC10F40BD
:1005F0006300050084C00F408CC00F4080C00F40D6
:10060000A4C00F40ACC00F40A0C00F40A8C00F4016
:10061000DE872804C4C00F40002100E0491C81424D
:10062000FCD370474FF0F060A349C8614FF0006001
:10063000C8614000C861704700B5FFF7F3FF9F48ED
:1006400000689D4948614FF00060C86140008861C2
:100650001920FFF7E1FF4FF080509749C86100BDB6
:1006600000B59748007800F0F0009449086008460B
:100670000088C0040860FFF7DFFF9148007800F0B1
:100680000F008E49086008460088C0050860FFF723
:10069000D3FF4FF47A70FFF7BFFF00BD00B5FFF73F
:1006A000C1FF86480068844948614FF00060886156
:1006B000400088611920FFF7AFFF4FF080507E495E
:1006C000C86100BD00B57E48007800F0F0007B49AD
:1006D000086008460088C0040860FFF7DFFF78481C
:1006E000007800F00F007549086008460088C005D2
:1006F0000860FFF7D3FF4FF47A70FFF78DFF00BD5E
:1007000010B5044600230CE0E05C6D490860FFF77B
:10071000D9FF5B1C102B04D1C02069490860FFF78A
:100720009FFFE05C0028EFD110BD00B56548C068B0
:10073000654908406349C8605F48006840F0F06060
:100740005D4908600846006840F00060086008469F
:10075000006840F080500860FFF764FF4FF4486085
:10076000FFF75AFF4FF0C07054490860FFF764FF6D
:1007700047F23050FFF750FF4FF0C0704F4908600C
:10078000FFF75AFF47F23050FFF746FF4FF0C070B7
:100790004A490860FFF750FF47F23050FFF73CFF2F
:1007A0004FF0807045490860FFF746FF47F2305030
:1007B000FFF732FF282042490860FFF751FF47F258
:1007C0003050FFF729FF0C203D490860FFF748FF34
:1007D0004FF44870FFF720FF062039490860FFF703
:1007E0003FFF4FF44870FFF717FF012034490860BE
:1007F000FFF736FF42F21070FFF70EFF80203049FE
:100800000860FFF72DFF4FF44870FFF705FF00BDAC
:1008100008B5FFF749FEFFF773FDFFF786FF0020DD
:10082000284908612449086439E02348406D10F4E0
:10083000805F34D1FFF79AFC062190FBF1F201FBB7
:100840001204641C012C02D131208DF80000022C0E
:1008500002D132208DF80000032C02D133208DF814
:100860000000042C02D134208DF80000052C02D1A8
:1008700035208DF80000062C02D136208DF80000BE
:1008800000208DF8010080200D490860FFF7E8FE88
:100890004FF44870FFF7C0FE6846FFF731FFC4E72A
:1008A00000B5012006490860FFF7DAFE42F2107039
:1008B000FFF7B2FE00BD000000C0092008000010D4
:1008C0000400001000C00240FF3F00FC0B4910B5BF
:1008D000A1F17C020A4CC2E93712372106E000EB95
:1008E000104342F82130074B00FB03400B1EA1F1DF
:1008F0000101F4DC10BD0120E8E7000088000010D1
:10090000E119D666CD0D01007546FFF7E7FCAE464E
:1009100005006946534620F00700854618B020B50B
:10092000FFF74CFCBDE820404FF000064FF00007F9
:100930004FF000084FF0000B21F00701AC46ACE887
:10094000C009ACE8C009ACE8C009ACE8C0098D46F4
:100950007047000074090000000000100C00000047
:1009600008010000800900000C0000104403000092
:100970002401000000E1F505000000000000000077
:04000005000001A155
:00000001FF
